{
  "_format": "hh-sol-artifact-1",
  "contractName": "FairAidDID",
  "sourceName": "contracts/FairAidDID.sol",
  "abi": [
    {
      "inputs": [],
      "stateMutability": "nonpayable",
      "type": "constructor"
    },
    {
      "inputs": [
        {
          "internalType": "address",
          "name": "sender",
          "type": "address"
        },
        {
          "internalType": "uint256",
          "name": "tokenId",
          "type": "uint256"
        },
        {
          "internalType": "address",
          "name": "owner",
          "type": "address"
        }
      ],
      "name": "ERC721IncorrectOwner",
      "type": "error"
    },
    {
      "inputs": [
        {
          "internalType": "address",
          "name": "operator",
          "type": "address"
        },
        {
          "internalType": "uint256",
          "name": "tokenId",
          "type": "uint256"
        }
      ],
      "name": "ERC721InsufficientApproval",
      "type": "error"
    },
    {
      "inputs": [
        {
          "internalType": "address",
          "name": "approver",
          "type": "address"
        }
      ],
      "name": "ERC721InvalidApprover",
      "type": "error"
    },
    {
      "inputs": [
        {
          "internalType": "address",
          "name": "operator",
          "type": "address"
        }
      ],
      "name": "ERC721InvalidOperator",
      "type": "error"
    },
    {
      "inputs": [
        {
          "internalType": "address",
          "name": "owner",
          "type": "address"
        }
      ],
      "name": "ERC721InvalidOwner",
      "type": "error"
    },
    {
      "inputs": [
        {
          "internalType": "address",
          "name": "receiver",
          "type": "address"
        }
      ],
      "name": "ERC721InvalidReceiver",
      "type": "error"
    },
    {
      "inputs": [
        {
          "internalType": "address",
          "name": "sender",
          "type": "address"
        }
      ],
      "name": "ERC721InvalidSender",
      "type": "error"
    },
    {
      "inputs": [
        {
          "internalType": "uint256",
          "name": "tokenId",
          "type": "uint256"
        }
      ],
      "name": "ERC721NonexistentToken",
      "type": "error"
    },
    {
      "inputs": [],
      "name": "ErrLocked",
      "type": "error"
    },
    {
      "inputs": [],
      "name": "ErrNotFound",
      "type": "error"
    },
    {
      "inputs": [
        {
          "internalType": "address",
          "name": "owner",
          "type": "address"
        }
      ],
      "name": "OwnableInvalidOwner",
      "type": "error"
    },
    {
      "inputs": [
        {
          "internalType": "address",
          "name": "account",
          "type": "address"
        }
      ],
      "name": "OwnableUnauthorizedAccount",
      "type": "error"
    },
    {
      "anonymous": false,
      "inputs": [
        {
          "indexed": true,
          "internalType": "address",
          "name": "owner",
          "type": "address"
        },
        {
          "indexed": true,
          "internalType": "address",
          "name": "approved",
          "type": "address"
        },
        {
          "indexed": true,
          "internalType": "uint256",
          "name": "tokenId",
          "type": "uint256"
        }
      ],
      "name": "Approval",
      "type": "event"
    },
    {
      "anonymous": false,
      "inputs": [
        {
          "indexed": true,
          "internalType": "address",
          "name": "owner",
          "type": "address"
        },
        {
          "indexed": true,
          "internalType": "address",
          "name": "operator",
          "type": "address"
        },
        {
          "indexed": false,
          "internalType": "bool",
          "name": "approved",
          "type": "bool"
        }
      ],
      "name": "ApprovalForAll",
      "type": "event"
    },
    {
      "anonymous": false,
      "inputs": [
        {
          "indexed": false,
          "internalType": "uint256",
          "name": "_fromTokenId",
          "type": "uint256"
        },
        {
          "indexed": false,
          "internalType": "uint256",
          "name": "_toTokenId",
          "type": "uint256"
        }
      ],
      "name": "BatchMetadataUpdate",
      "type": "event"
    },
    {
      "anonymous": false,
      "inputs": [
        {
          "indexed": false,
          "internalType": "uint256",
          "name": "tokenId",
          "type": "uint256"
        }
      ],
      "name": "Locked",
      "type": "event"
    },
    {
      "anonymous": false,
      "inputs": [
        {
          "indexed": false,
          "internalType": "uint256",
          "name": "_tokenId",
          "type": "uint256"
        }
      ],
      "name": "MetadataUpdate",
      "type": "event"
    },
    {
      "anonymous": false,
      "inputs": [
        {
          "indexed": true,
          "internalType": "address",
          "name": "previousOwner",
          "type": "address"
        },
        {
          "indexed": true,
          "internalType": "address",
          "name": "newOwner",
          "type": "address"
        }
      ],
      "name": "OwnershipTransferred",
      "type": "event"
    },
    {
      "anonymous": false,
      "inputs": [
        {
          "indexed": true,
          "internalType": "address",
          "name": "from",
          "type": "address"
        },
        {
          "indexed": true,
          "internalType": "address",
          "name": "to",
          "type": "address"
        },
        {
          "indexed": true,
          "internalType": "uint256",
          "name": "tokenId",
          "type": "uint256"
        }
      ],
      "name": "Transfer",
      "type": "event"
    },
    {
      "anonymous": false,
      "inputs": [
        {
          "indexed": false,
          "internalType": "uint256",
          "name": "tokenId",
          "type": "uint256"
        }
      ],
      "name": "Unlocked",
      "type": "event"
    },
    {
      "inputs": [
        {
          "internalType": "address",
          "name": "approved",
          "type": "address"
        },
        {
          "internalType": "uint256",
          "name": "tokenId",
          "type": "uint256"
        }
      ],
      "name": "approve",
      "outputs": [],
      "stateMutability": "nonpayable",
      "type": "function"
    },
    {
      "inputs": [
        {
          "internalType": "address",
          "name": "owner",
          "type": "address"
        }
      ],
      "name": "balanceOf",
      "outputs": [
        {
          "internalType": "uint256",
          "name": "",
          "type": "uint256"
        }
      ],
      "stateMutability": "view",
      "type": "function"
    },
    {
      "inputs": [
        {
          "internalType": "uint256",
          "name": "tokenId",
          "type": "uint256"
        }
      ],
      "name": "burnDID",
      "outputs": [],
      "stateMutability": "nonpayable",
      "type": "function"
    },
    {
      "inputs": [
        {
          "internalType": "uint256",
          "name": "tokenId",
          "type": "uint256"
        }
      ],
      "name": "checkExpired",
      "outputs": [
        {
          "internalType": "bool",
          "name": "",
          "type": "bool"
        }
      ],
      "stateMutability": "view",
      "type": "function"
    },
    {
      "inputs": [
        {
          "internalType": "uint256",
          "name": "tokenId",
          "type": "uint256"
        }
      ],
      "name": "expiresWhen",
      "outputs": [
        {
          "internalType": "uint256",
          "name": "",
          "type": "uint256"
        }
      ],
      "stateMutability": "view",
      "type": "function"
    },
    {
      "inputs": [
        {
          "internalType": "address",
          "name": "owner",
          "type": "address"
        }
      ],
      "name": "findDID",
      "outputs": [
        {
          "internalType": "uint256",
          "name": "",
          "type": "uint256"
        }
      ],
      "stateMutability": "view",
      "type": "function"
    },
    {
      "inputs": [
        {
          "internalType": "uint256",
          "name": "tokenId",
          "type": "uint256"
        }
      ],
      "name": "getApproved",
      "outputs": [
        {
          "internalType": "address",
          "name": "",
          "type": "address"
        }
      ],
      "stateMutability": "view",
      "type": "function"
    },
    {
      "inputs": [
        {
          "internalType": "address",
          "name": "owner",
          "type": "address"
        },
        {
          "internalType": "address",
          "name": "operator",
          "type": "address"
        }
      ],
      "name": "isApprovedForAll",
      "outputs": [
        {
          "internalType": "bool",
          "name": "",
          "type": "bool"
        }
      ],
      "stateMutability": "view",
      "type": "function"
    },
    {
      "inputs": [
        {
          "internalType": "uint256",
          "name": "tokenId",
          "type": "uint256"
        }
      ],
      "name": "locked",
      "outputs": [
        {
          "internalType": "bool",
          "name": "",
          "type": "bool"
        }
      ],
      "stateMutability": "view",
      "type": "function"
    },
    {
      "inputs": [
        {
          "internalType": "address",
          "name": "to",
          "type": "address"
        },
        {
          "internalType": "string",
          "name": "_tokenURI",
          "type": "string"
        }
      ],
      "name": "mintDID",
      "outputs": [],
      "stateMutability": "nonpayable",
      "type": "function"
    },
    {
      "inputs": [],
      "name": "name",
      "outputs": [
        {
          "internalType": "string",
          "name": "",
          "type": "string"
        }
      ],
      "stateMutability": "view",
      "type": "function"
    },
    {
      "inputs": [],
      "name": "owner",
      "outputs": [
        {
          "internalType": "address",
          "name": "",
          "type": "address"
        }
      ],
      "stateMutability": "view",
      "type": "function"
    },
    {
      "inputs": [
        {
          "internalType": "uint256",
          "name": "tokenId",
          "type": "uint256"
        }
      ],
      "name": "ownerOf",
      "outputs": [
        {
          "internalType": "address",
          "name": "",
          "type": "address"
        }
      ],
      "stateMutability": "view",
      "type": "function"
    },
    {
      "inputs": [],
      "name": "renounceOwnership",
      "outputs": [],
      "stateMutability": "nonpayable",
      "type": "function"
    },
    {
      "inputs": [
        {
          "internalType": "address",
          "name": "from",
          "type": "address"
        },
        {
          "internalType": "address",
          "name": "to",
          "type": "address"
        },
        {
          "internalType": "uint256",
          "name": "tokenId",
          "type": "uint256"
        }
      ],
      "name": "safeTransferFrom",
      "outputs": [],
      "stateMutability": "nonpayable",
      "type": "function"
    },
    {
      "inputs": [
        {
          "internalType": "address",
          "name": "from",
          "type": "address"
        },
        {
          "internalType": "address",
          "name": "to",
          "type": "address"
        },
        {
          "internalType": "uint256",
          "name": "tokenId",
          "type": "uint256"
        },
        {
          "internalType": "bytes",
          "name": "data",
          "type": "bytes"
        }
      ],
      "name": "safeTransferFrom",
      "outputs": [],
      "stateMutability": "nonpayable",
      "type": "function"
    },
    {
      "inputs": [
        {
          "internalType": "address",
          "name": "operator",
          "type": "address"
        },
        {
          "internalType": "bool",
          "name": "approved",
          "type": "bool"
        }
      ],
      "name": "setApprovalForAll",
      "outputs": [],
      "stateMutability": "nonpayable",
      "type": "function"
    },
    {
      "inputs": [
        {
          "internalType": "bytes4",
          "name": "interfaceId",
          "type": "bytes4"
        }
      ],
      "name": "supportsInterface",
      "outputs": [
        {
          "internalType": "bool",
          "name": "",
          "type": "bool"
        }
      ],
      "stateMutability": "view",
      "type": "function"
    },
    {
      "inputs": [],
      "name": "symbol",
      "outputs": [
        {
          "internalType": "string",
          "name": "",
          "type": "string"
        }
      ],
      "stateMutability": "view",
      "type": "function"
    },
    {
      "inputs": [
        {
          "internalType": "uint256",
          "name": "tokenId",
          "type": "uint256"
        }
      ],
      "name": "tokenURI",
      "outputs": [
        {
          "internalType": "string",
          "name": "",
          "type": "string"
        }
      ],
      "stateMutability": "view",
      "type": "function"
    },
    {
      "inputs": [
        {
          "internalType": "address",
          "name": "from",
          "type": "address"
        },
        {
          "internalType": "address",
          "name": "to",
          "type": "address"
        },
        {
          "internalType": "uint256",
          "name": "tokenId",
          "type": "uint256"
        }
      ],
      "name": "transferFrom",
      "outputs": [],
      "stateMutability": "nonpayable",
      "type": "function"
    },
    {
      "inputs": [
        {
          "internalType": "address",
          "name": "newOwner",
          "type": "address"
        }
      ],
      "name": "transferOwnership",
      "outputs": [],
      "stateMutability": "nonpayable",
      "type": "function"
    },
    {
      "inputs": [
        {
          "internalType": "uint256",
          "name": "tokenId",
          "type": "uint256"
        },
        {
          "internalType": "string",
          "name": "_tokenURI",
          "type": "string"
        }
      ],
      "name": "updateTokenURI",
      "outputs": [],
      "stateMutability": "nonpayable",
      "type": "function"
    }
  ],
  "bytecode": "0x60806040526001600a60006101000a81548160ff0219169083151502179055503480156200002c57600080fd5b50336040518060400160405280600a81526020017f46616972416964444944000000000000000000000000000000000000000000008152506040518060400160405280600381526020017f4449440000000000000000000000000000000000000000000000000000000000815250600a60009054906101000a900460ff1682828160009081620000bd9190620004bc565b508060019081620000cf9190620004bc565b50505080600660006101000a81548160ff021916908315150217905550505050600073ffffffffffffffffffffffffffffffffffffffff168173ffffffffffffffffffffffffffffffffffffffff1603620001645760006040517f1e4fbdf70000000000000000000000000000000000000000000000000000000081526004016200015b9190620005e8565b60405180910390fd5b62000175816200017c60201b60201c565b5062000605565b6000600860009054906101000a900473ffffffffffffffffffffffffffffffffffffffff16905081600860006101000a81548173ffffffffffffffffffffffffffffffffffffffff021916908373ffffffffffffffffffffffffffffffffffffffff1602179055508173ffffffffffffffffffffffffffffffffffffffff168173ffffffffffffffffffffffffffffffffffffffff167f8be0079c531659141344cd1fd0a4f28419497f9722a3daafe3b4186f6b6457e060405160405180910390a35050565b600081519050919050565b7f4e487b7100000000000000000000000000000000000000000000000000000000600052604160045260246000fd5b7f4e487b7100000000000000000000000000000000000000000000000000000000600052602260045260246000fd5b60006002820490506001821680620002c457607f821691505b602082108103620002da57620002d96200027c565b5b50919050565b60008190508160005260206000209050919050565b60006020601f8301049050919050565b600082821b905092915050565b600060088302620003447fffffffffffffffffffffffffffffffffffffffffffffffffffffffffffffffff8262000305565b62000350868362000305565b95508019841693508086168417925050509392505050565b6000819050919050565b6000819050919050565b60006200039d62000397620003918462000368565b62000372565b62000368565b9050919050565b6000819050919050565b620003b9836200037c565b620003d1620003c882620003a4565b84845462000312565b825550505050565b600090565b620003e8620003d9565b620003f5818484620003ae565b505050565b5b818110156200041d5762000411600082620003de565b600181019050620003fb565b5050565b601f8211156200046c576200043681620002e0565b6200044184620002f5565b8101602085101562000451578190505b620004696200046085620002f5565b830182620003fa565b50505b505050565b600082821c905092915050565b6000620004916000198460080262000471565b1980831691505092915050565b6000620004ac83836200047e565b9150826002028217905092915050565b620004c78262000242565b67ffffffffffffffff811115620004e357620004e26200024d565b5b620004ef8254620002ab565b620004fc82828562000421565b600060209050601f8311600181146200053457600084156200051f578287015190505b6200052b85826200049e565b8655506200059b565b601f1984166200054486620002e0565b60005b828110156200056e5784890151825560018201915060208501945060208101905062000547565b868310156200058e57848901516200058a601f8916826200047e565b8355505b6001600288020188555050505b505050505050565b600073ffffffffffffffffffffffffffffffffffffffff82169050919050565b6000620005d082620005a3565b9050919050565b620005e281620005c3565b82525050565b6000602082019050620005ff6000830184620005d7565b92915050565b61340680620006156000396000f3fe608060405234801561001057600080fd5b506004361061014d5760003560e01c806370a08231116100c3578063b45a3c0e1161007c578063b45a3c0e1461039a578063b88d4fde146103ca578063c87b56dd146103e6578063df04e9f314610416578063e985e9c514610446578063f2fde38b146104765761014d565b806370a08231146102d8578063715018a614610308578063758e53aa146103125780638da5cb5b1461034257806395d89b4114610360578063a22cb4651461037e5761014d565b80631552b81c116101155780631552b81c1461020857806318e97fd11461023857806323b872dd1461025457806331c05a1e1461027057806342842e0e1461028c5780636352211e146102a85761014d565b8063019e29721461015257806301ffc9a71461016e57806306fdde031461019e578063081812fc146101bc578063095ea7b3146101ec575b600080fd5b61016c6004803603810190610167919061268b565b610492565b005b61018860048036038101906101839190612710565b610618565b6040516101959190612758565b60405180910390f35b6101a6610692565b6040516101b39190612803565b60405180910390f35b6101d660048036038101906101d1919061268b565b610724565b6040516101e39190612866565b60405180910390f35b610206600480360381019061020191906128ad565b610740565b005b610222600480360381019061021d919061268b565b61083b565b60405161022f91906128fc565b60405180910390f35b610252600480360381019061024d9190612a4c565b6108f6565b005b61026e60048036038101906102699190612aa8565b6109aa565b005b61028a60048036038101906102859190612afb565b610aa7565b005b6102a660048036038101906102a19190612aa8565b610c28565b005b6102c260048036038101906102bd919061268b565b610c48565b6040516102cf9190612866565b60405180910390f35b6102f260048036038101906102ed9190612b57565b610d23565b6040516102ff91906128fc565b60405180910390f35b610310610ddd565b005b61032c6004803603810190610327919061268b565b610df1565b6040516103399190612758565b60405180910390f35b61034a610e60565b6040516103579190612866565b60405180910390f35b610368610e8a565b6040516103759190612803565b60405180910390f35b61039860048036038101906103939190612bb0565b610f1c565b005b6103b460048036038101906103af919061268b565b610f81565b6040516103c19190612758565b60405180910390f35b6103e460048036038101906103df9190612c91565b610fd9565b005b61040060048036038101906103fb919061268b565b6110d8565b60405161040d9190612803565b60405180910390f35b610430600480360381019061042b9190612b57565b61121b565b60405161043d91906128fc565b60405180910390f35b610460600480360381019061045b9190612d14565b611373565b60405161046d9190612758565b60405180910390f35b610490600480360381019061048b9190612b57565b611407565b005b61049a611462565b600115156104a7826114e9565b1515146104e9576040517f08c379a00000000000000000000000000000000000000000000000000000000081526004016104e090612da0565b60405180910390fd5b6000600d6000600e600085815260200190815260200160002060009054906101000a900473ffffffffffffffffffffffffffffffffffffffff1673ffffffffffffffffffffffffffffffffffffffff1673ffffffffffffffffffffffffffffffffffffffff168152602001908152602001600020819055506000600e600083815260200190815260200160002060006101000a81548173ffffffffffffffffffffffffffffffffffffffff021916908373ffffffffffffffffffffffffffffffffffffffff1602179055506000600c60008381526020019081526020016000208190555061060c816040518060400160405280600e81526020017f446f65736e27742065786973742e000000000000000000000000000000000000815250611555565b6106158161157a565b50565b60007f85e2db7c000000000000000000000000000000000000000000000000000000007bffffffffffffffffffffffffffffffffffffffffffffffffffffffff1916827bffffffffffffffffffffffffffffffffffffffffffffffffffffffff1916148061068b575061068a82611600565b5b9050919050565b6060600080546106a190612def565b80601f01602080910402602001604051908101604052809291908181526020018280546106cd90612def565b801561071a5780601f106106ef5761010080835404028352916020019161071a565b820191906000526020600020905b8154815290600101906020018083116106fd57829003601f168201915b5050505050905090565b600061072f82611661565b50610739826116e9565b9050919050565b610748611462565b600660009054906101000a900460ff161561078f576040517fbd291a9500000000000000000000000000000000000000000000000000000000815260040160405180910390fd5b6001151561079c826114e9565b1515146107de576040517f08c379a00000000000000000000000000000000000000000000000000000000081526004016107d590612da0565b60405180910390fd5b600015156107eb82610df1565b15151461082d576040517f08c379a000000000000000000000000000000000000000000000000000000000815260040161082490612e6c565b60405180910390fd5b6108378282611726565b5050565b60006001151561084a836114e9565b15151461088c576040517f08c379a000000000000000000000000000000000000000000000000000000000815260040161088390612da0565b60405180910390fd5b6000151561089983610df1565b1515146108db576040517f08c379a00000000000000000000000000000000000000000000000000000000081526004016108d290612e6c565b60405180910390fd5b600c6000838152602001908152602001600020549050919050565b6108fe611462565b6001151561090b836114e9565b15151461094d576040517f08c379a000000000000000000000000000000000000000000000000000000000815260040161094490612da0565b60405180910390fd5b6000151561095a83610df1565b15151461099c576040517f08c379a000000000000000000000000000000000000000000000000000000000815260040161099390612e6c565b60405180910390fd5b6109a68282611555565b5050565b6109b2611462565b600660009054906101000a900460ff16156109f9576040517fbd291a9500000000000000000000000000000000000000000000000000000000815260040160405180910390fd5b60011515610a06826114e9565b151514610a48576040517f08c379a0000000000000000000000000000000000000000000000000000000008152600401610a3f90612da0565b60405180910390fd5b60001515610a5582610df1565b151514610a97576040517f08c379a0000000000000000000000000000000000000000000000000000000008152600401610a8e90612e6c565b60405180910390fd5b610aa283838361177b565b505050565b610aaf611462565b6000600d60008473ffffffffffffffffffffffffffffffffffffffff1673ffffffffffffffffffffffffffffffffffffffff1681526020019081526020016000205414610b31576040517f08c379a0000000000000000000000000000000000000000000000000000000008152600401610b2890612ed8565b60405180910390fd5b60096000815480929190610b4490612f27565b9190505550610b55826009546117d2565b600954600d60008473ffffffffffffffffffffffffffffffffffffffff1673ffffffffffffffffffffffffffffffffffffffff1681526020019081526020016000208190555081600e6000600954815260200190815260200160002060006101000a81548173ffffffffffffffffffffffffffffffffffffffff021916908373ffffffffffffffffffffffffffffffffffffffff160217905550610bfb60095482611555565b630967a76042610c0b9190612f6f565b600c60006009548152602001908152602001600020819055505050565b610c4383838360405180602001604052806000815250610fd9565b505050565b600060011515610c57836114e9565b151514610c99576040517f08c379a0000000000000000000000000000000000000000000000000000000008152600401610c9090612da0565b60405180910390fd5b60001515610ca683610df1565b151514610ce8576040517f08c379a0000000000000000000000000000000000000000000000000000000008152600401610cdf90612e6c565b60405180910390fd5b600e600083815260200190815260200160002060009054906101000a900473ffffffffffffffffffffffffffffffffffffffff169050919050565b60008073ffffffffffffffffffffffffffffffffffffffff168273ffffffffffffffffffffffffffffffffffffffff1603610d965760006040517f89c62b64000000000000000000000000000000000000000000000000000000008152600401610d8d9190612866565b60405180910390fd5b600360008373ffffffffffffffffffffffffffffffffffffffff1673ffffffffffffffffffffffffffffffffffffffff168152602001908152602001600020549050919050565b610de5611462565b610def60006117f0565b565b600060011515610e00836114e9565b151514610e42576040517f08c379a0000000000000000000000000000000000000000000000000000000008152600401610e3990612da0565b60405180910390fd5b600c6000838152602001908152602001600020544210159050919050565b6000600860009054906101000a900473ffffffffffffffffffffffffffffffffffffffff16905090565b606060018054610e9990612def565b80601f0160208091040260200160405190810160405280929190818152602001828054610ec590612def565b8015610f125780601f10610ee757610100808354040283529160200191610f12565b820191906000526020600020905b815481529060010190602001808311610ef557829003601f168201915b5050505050905090565b610f24611462565b600660009054906101000a900460ff1615610f6b576040517fbd291a9500000000000000000000000000000000000000000000000000000000815260040160405180910390fd5b610f7d610f766118b6565b83836118be565b5050565b6000610f8c82611a2d565b610fc2576040517fae9a63f500000000000000000000000000000000000000000000000000000000815260040160405180910390fd5b600660009054906101000a900460ff169050919050565b610fe1611462565b600660009054906101000a900460ff1615611028576040517fbd291a9500000000000000000000000000000000000000000000000000000000815260040160405180910390fd5b60011515611035836114e9565b151514611077576040517f08c379a000000000000000000000000000000000000000000000000000000000815260040161106e90612da0565b60405180910390fd5b6000151561108483610df1565b1515146110c6576040517f08c379a00000000000000000000000000000000000000000000000000000000081526004016110bd90612e6c565b60405180910390fd5b6110d284848484611a6e565b50505050565b6060600115156110e7836114e9565b151514611129576040517f08c379a000000000000000000000000000000000000000000000000000000000815260040161112090612da0565b60405180910390fd5b6000151561113683610df1565b151514611178576040517f08c379a000000000000000000000000000000000000000000000000000000000815260040161116f90612e6c565b60405180910390fd5b600b6000838152602001908152602001600020805461119690612def565b80601f01602080910402602001604051908101604052809291908181526020018280546111c290612def565b801561120f5780601f106111e45761010080835404028352916020019161120f565b820191906000526020600020905b8154815290600101906020018083116111f257829003601f168201915b50505050509050919050565b600080600d60008473ffffffffffffffffffffffffffffffffffffffff1673ffffffffffffffffffffffffffffffffffffffff168152602001908152602001600020540361129e576040517f08c379a000000000000000000000000000000000000000000000000000000000815260040161129590612fef565b60405180910390fd5b600015156112ea600d60008573ffffffffffffffffffffffffffffffffffffffff1673ffffffffffffffffffffffffffffffffffffffff16815260200190815260200160002054610df1565b15151461132c576040517f08c379a000000000000000000000000000000000000000000000000000000000815260040161132390612e6c565b60405180910390fd5b600d60008373ffffffffffffffffffffffffffffffffffffffff1673ffffffffffffffffffffffffffffffffffffffff168152602001908152602001600020549050919050565b6000600560008473ffffffffffffffffffffffffffffffffffffffff1673ffffffffffffffffffffffffffffffffffffffff16815260200190815260200160002060008373ffffffffffffffffffffffffffffffffffffffff1673ffffffffffffffffffffffffffffffffffffffff16815260200190815260200160002060009054906101000a900460ff16905092915050565b61140f611462565b600660009054906101000a900460ff1615611456576040517fbd291a9500000000000000000000000000000000000000000000000000000000815260040160405180910390fd5b61145f816117f0565b50565b61146a6118b6565b73ffffffffffffffffffffffffffffffffffffffff16611488610e60565b73ffffffffffffffffffffffffffffffffffffffff16146114e7576114ab6118b6565b6040517f118cdaa70000000000000000000000000000000000000000000000000000000081526004016114de9190612866565b60405180910390fd5b565b60008073ffffffffffffffffffffffffffffffffffffffff16600e600084815260200190815260200160002060009054906101000a900473ffffffffffffffffffffffffffffffffffffffff1673ffffffffffffffffffffffffffffffffffffffff1614159050919050565b80600b6000848152602001908152602001600020908161157591906131bb565b505050565b60006115896000836000611ac7565b9050600073ffffffffffffffffffffffffffffffffffffffff168173ffffffffffffffffffffffffffffffffffffffff16036115fc57816040517f7e2732890000000000000000000000000000000000000000000000000000000081526004016115f391906128fc565b60405180910390fd5b5050565b6000634906490660e01b7bffffffffffffffffffffffffffffffffffffffffffffffffffffffff1916827bffffffffffffffffffffffffffffffffffffffffffffffffffffffff1916148061165a575061165982611ce1565b5b9050919050565b60008061166d83611d5b565b9050600073ffffffffffffffffffffffffffffffffffffffff168173ffffffffffffffffffffffffffffffffffffffff16036116e057826040517f7e2732890000000000000000000000000000000000000000000000000000000081526004016116d791906128fc565b60405180910390fd5b80915050919050565b60006004600083815260200190815260200160002060009054906101000a900473ffffffffffffffffffffffffffffffffffffffff169050919050565b600660009054906101000a900460ff161561176d576040517fbd291a9500000000000000000000000000000000000000000000000000000000815260040160405180910390fd5b6117778282611d98565b5050565b600660009054906101000a900460ff16156117c2576040517fbd291a9500000000000000000000000000000000000000000000000000000000815260040160405180910390fd5b6117cd838383611dae565b505050565b6117ec828260405180602001604052806000815250611eb0565b5050565b6000600860009054906101000a900473ffffffffffffffffffffffffffffffffffffffff16905081600860006101000a81548173ffffffffffffffffffffffffffffffffffffffff021916908373ffffffffffffffffffffffffffffffffffffffff1602179055508173ffffffffffffffffffffffffffffffffffffffff168173ffffffffffffffffffffffffffffffffffffffff167f8be0079c531659141344cd1fd0a4f28419497f9722a3daafe3b4186f6b6457e060405160405180910390a35050565b600033905090565b600073ffffffffffffffffffffffffffffffffffffffff168273ffffffffffffffffffffffffffffffffffffffff160361192f57816040517f5b08ba180000000000000000000000000000000000000000000000000000000081526004016119269190612866565b60405180910390fd5b80600560008573ffffffffffffffffffffffffffffffffffffffff1673ffffffffffffffffffffffffffffffffffffffff16815260200190815260200160002060008473ffffffffffffffffffffffffffffffffffffffff1673ffffffffffffffffffffffffffffffffffffffff16815260200190815260200160002060006101000a81548160ff0219169083151502179055508173ffffffffffffffffffffffffffffffffffffffff168373ffffffffffffffffffffffffffffffffffffffff167f17307eab39ab6107e8899845ad3d59bd9653f200f220920489ca2b5937696c3183604051611a209190612758565b60405180910390a3505050565b60008073ffffffffffffffffffffffffffffffffffffffff16611a4f83610c48565b73ffffffffffffffffffffffffffffffffffffffff1614159050919050565b600660009054906101000a900460ff1615611ab5576040517fbd291a9500000000000000000000000000000000000000000000000000000000815260040160405180910390fd5b611ac184848484611ecc565b50505050565b600080611ad384611d5b565b9050600073ffffffffffffffffffffffffffffffffffffffff168373ffffffffffffffffffffffffffffffffffffffff1614611b1557611b14818486611ee9565b5b600073ffffffffffffffffffffffffffffffffffffffff168173ffffffffffffffffffffffffffffffffffffffff1614611ba657611b57600085600080611fad565b6001600360008373ffffffffffffffffffffffffffffffffffffffff1673ffffffffffffffffffffffffffffffffffffffff168152602001908152602001600020600082825403925050819055505b600073ffffffffffffffffffffffffffffffffffffffff168573ffffffffffffffffffffffffffffffffffffffff1614611c29576001600360008773ffffffffffffffffffffffffffffffffffffffff1673ffffffffffffffffffffffffffffffffffffffff168152602001908152602001600020600082825401925050819055505b846002600086815260200190815260200160002060006101000a81548173ffffffffffffffffffffffffffffffffffffffff021916908373ffffffffffffffffffffffffffffffffffffffff160217905550838573ffffffffffffffffffffffffffffffffffffffff168273ffffffffffffffffffffffffffffffffffffffff167fddf252ad1be2c89b69c2b068fc378daa952ba7f163c4a11628f55a4df523b3ef60405160405180910390a4809150509392505050565b60007fb45a3c0e000000000000000000000000000000000000000000000000000000007bffffffffffffffffffffffffffffffffffffffffffffffffffffffff1916827bffffffffffffffffffffffffffffffffffffffffffffffffffffffff19161480611d545750611d5382612172565b5b9050919050565b60006002600083815260200190815260200160002060009054906101000a900473ffffffffffffffffffffffffffffffffffffffff169050919050565b611daa8282611da56118b6565b612254565b5050565b600073ffffffffffffffffffffffffffffffffffffffff168273ffffffffffffffffffffffffffffffffffffffff1603611e205760006040517f64a0ae92000000000000000000000000000000000000000000000000000000008152600401611e179190612866565b60405180910390fd5b6000611e348383611e2f6118b6565b611ac7565b90508373ffffffffffffffffffffffffffffffffffffffff168173ffffffffffffffffffffffffffffffffffffffff1614611eaa578382826040517f64283d7b000000000000000000000000000000000000000000000000000000008152600401611ea19392919061328d565b60405180910390fd5b50505050565b611eba8383612266565b611ec7600084848461235f565b505050565b611ed78484846109aa565b611ee38484848461235f565b50505050565b611ef4838383612516565b611fa857600073ffffffffffffffffffffffffffffffffffffffff168373ffffffffffffffffffffffffffffffffffffffff1603611f6957806040517f7e273289000000000000000000000000000000000000000000000000000000008152600401611f6091906128fc565b60405180910390fd5b81816040517f177e802f000000000000000000000000000000000000000000000000000000008152600401611f9f9291906132c4565b60405180910390fd5b505050565b8080611fe65750600073ffffffffffffffffffffffffffffffffffffffff168273ffffffffffffffffffffffffffffffffffffffff1614155b1561211a576000611ff684611661565b9050600073ffffffffffffffffffffffffffffffffffffffff168373ffffffffffffffffffffffffffffffffffffffff161415801561206157508273ffffffffffffffffffffffffffffffffffffffff168173ffffffffffffffffffffffffffffffffffffffff1614155b801561207457506120728184611373565b155b156120b657826040517fa9fbf51f0000000000000000000000000000000000000000000000000000000081526004016120ad9190612866565b60405180910390fd5b811561211857838573ffffffffffffffffffffffffffffffffffffffff168273ffffffffffffffffffffffffffffffffffffffff167f8c5be1e5ebec7d5bd14f71427d1e84f3dd0314c0f7b2291e5b200ac8c7c3b92560405160405180910390a45b505b836004600085815260200190815260200160002060006101000a81548173ffffffffffffffffffffffffffffffffffffffff021916908373ffffffffffffffffffffffffffffffffffffffff16021790555050505050565b60007f80ac58cd000000000000000000000000000000000000000000000000000000007bffffffffffffffffffffffffffffffffffffffffffffffffffffffff1916827bffffffffffffffffffffffffffffffffffffffffffffffffffffffff1916148061223d57507f5b5e139f000000000000000000000000000000000000000000000000000000007bffffffffffffffffffffffffffffffffffffffffffffffffffffffff1916827bffffffffffffffffffffffffffffffffffffffffffffffffffffffff1916145b8061224d575061224c826125d7565b5b9050919050565b6122618383836001611fad565b505050565b600073ffffffffffffffffffffffffffffffffffffffff168273ffffffffffffffffffffffffffffffffffffffff16036122d85760006040517f64a0ae920000000000000000000000000000000000000000000000000000000081526004016122cf9190612866565b60405180910390fd5b60006122e683836000611ac7565b9050600073ffffffffffffffffffffffffffffffffffffffff168173ffffffffffffffffffffffffffffffffffffffff161461235a5760006040517f73c6ac6e0000000000000000000000000000000000000000000000000000000081526004016123519190612866565b60405180910390fd5b505050565b60008373ffffffffffffffffffffffffffffffffffffffff163b1115612510578273ffffffffffffffffffffffffffffffffffffffff1663150b7a026123a36118b6565b8685856040518563ffffffff1660e01b81526004016123c59493929190613342565b6020604051808303816000875af192505050801561240157506040513d601f19601f820116820180604052508101906123fe91906133a3565b60015b612485573d8060008114612431576040519150601f19603f3d011682016040523d82523d6000602084013e612436565b606091505b50600081510361247d57836040517f64a0ae920000000000000000000000000000000000000000000000000000000081526004016124749190612866565b60405180910390fd5b805181602001fd5b63150b7a0260e01b7bffffffffffffffffffffffffffffffffffffffffffffffffffffffff1916817bffffffffffffffffffffffffffffffffffffffffffffffffffffffff19161461250e57836040517f64a0ae920000000000000000000000000000000000000000000000000000000081526004016125059190612866565b60405180910390fd5b505b50505050565b60008073ffffffffffffffffffffffffffffffffffffffff168373ffffffffffffffffffffffffffffffffffffffff16141580156125ce57508273ffffffffffffffffffffffffffffffffffffffff168473ffffffffffffffffffffffffffffffffffffffff16148061258f575061258e8484611373565b5b806125cd57508273ffffffffffffffffffffffffffffffffffffffff166125b5836116e9565b73ffffffffffffffffffffffffffffffffffffffff16145b5b90509392505050565b60007f01ffc9a7000000000000000000000000000000000000000000000000000000007bffffffffffffffffffffffffffffffffffffffffffffffffffffffff1916827bffffffffffffffffffffffffffffffffffffffffffffffffffffffff1916149050919050565b6000604051905090565b600080fd5b600080fd5b6000819050919050565b61266881612655565b811461267357600080fd5b50565b6000813590506126858161265f565b92915050565b6000602082840312156126a1576126a061264b565b5b60006126af84828501612676565b91505092915050565b60007fffffffff0000000000000000000000000000000000000000000000000000000082169050919050565b6126ed816126b8565b81146126f857600080fd5b50565b60008135905061270a816126e4565b92915050565b6000602082840312156127265761272561264b565b5b6000612734848285016126fb565b91505092915050565b60008115159050919050565b6127528161273d565b82525050565b600060208201905061276d6000830184612749565b92915050565b600081519050919050565b600082825260208201905092915050565b60005b838110156127ad578082015181840152602081019050612792565b60008484015250505050565b6000601f19601f8301169050919050565b60006127d582612773565b6127df818561277e565b93506127ef81856020860161278f565b6127f8816127b9565b840191505092915050565b6000602082019050818103600083015261281d81846127ca565b905092915050565b600073ffffffffffffffffffffffffffffffffffffffff82169050919050565b600061285082612825565b9050919050565b61286081612845565b82525050565b600060208201905061287b6000830184612857565b92915050565b61288a81612845565b811461289557600080fd5b50565b6000813590506128a781612881565b92915050565b600080604083850312156128c4576128c361264b565b5b60006128d285828601612898565b92505060206128e385828601612676565b9150509250929050565b6128f681612655565b82525050565b600060208201905061291160008301846128ed565b92915050565b600080fd5b600080fd5b7f4e487b7100000000000000000000000000000000000000000000000000000000600052604160045260246000fd5b612959826127b9565b810181811067ffffffffffffffff8211171561297857612977612921565b5b80604052505050565b600061298b612641565b90506129978282612950565b919050565b600067ffffffffffffffff8211156129b7576129b6612921565b5b6129c0826127b9565b9050602081019050919050565b82818337600083830152505050565b60006129ef6129ea8461299c565b612981565b905082815260208101848484011115612a0b57612a0a61291c565b5b612a168482856129cd565b509392505050565b600082601f830112612a3357612a32612917565b5b8135612a438482602086016129dc565b91505092915050565b60008060408385031215612a6357612a6261264b565b5b6000612a7185828601612676565b925050602083013567ffffffffffffffff811115612a9257612a91612650565b5b612a9e85828601612a1e565b9150509250929050565b600080600060608486031215612ac157612ac061264b565b5b6000612acf86828701612898565b9350506020612ae086828701612898565b9250506040612af186828701612676565b9150509250925092565b60008060408385031215612b1257612b1161264b565b5b6000612b2085828601612898565b925050602083013567ffffffffffffffff811115612b4157612b40612650565b5b612b4d85828601612a1e565b9150509250929050565b600060208284031215612b6d57612b6c61264b565b5b6000612b7b84828501612898565b91505092915050565b612b8d8161273d565b8114612b9857600080fd5b50565b600081359050612baa81612b84565b92915050565b60008060408385031215612bc757612bc661264b565b5b6000612bd585828601612898565b9250506020612be685828601612b9b565b9150509250929050565b600067ffffffffffffffff821115612c0b57612c0a612921565b5b612c14826127b9565b9050602081019050919050565b6000612c34612c2f84612bf0565b612981565b905082815260208101848484011115612c5057612c4f61291c565b5b612c5b8482856129cd565b509392505050565b600082601f830112612c7857612c77612917565b5b8135612c88848260208601612c21565b91505092915050565b60008060008060808587031215612cab57612caa61264b565b5b6000612cb987828801612898565b9450506020612cca87828801612898565b9350506040612cdb87828801612676565b925050606085013567ffffffffffffffff811115612cfc57612cfb612650565b5b612d0887828801612c63565b91505092959194509250565b60008060408385031215612d2b57612d2a61264b565b5b6000612d3985828601612898565b9250506020612d4a85828601612898565b9150509250929050565b7f5468652044494420646f65736e27742065786973742100000000000000000000600082015250565b6000612d8a60168361277e565b9150612d9582612d54565b602082019050919050565b60006020820190508181036000830152612db981612d7d565b9050919050565b7f4e487b7100000000000000000000000000000000000000000000000000000000600052602260045260246000fd5b60006002820490506001821680612e0757607f821691505b602082108103612e1a57612e19612dc0565b5b50919050565b7f5468697320444944206861732065787069726564210000000000000000000000600082015250565b6000612e5660158361277e565b9150612e6182612e20565b602082019050919050565b60006020820190508181036000830152612e8581612e49565b9050919050565b7f54686973206164647265737320616c72656164792068617320616e2049442e00600082015250565b6000612ec2601f8361277e565b9150612ecd82612e8c565b602082019050919050565b60006020820190508181036000830152612ef181612eb5565b9050919050565b7f4e487b7100000000000000000000000000000000000000000000000000000000600052601160045260246000fd5b6000612f3282612655565b91507fffffffffffffffffffffffffffffffffffffffffffffffffffffffffffffffff8203612f6457612f63612ef8565b5b600182019050919050565b6000612f7a82612655565b9150612f8583612655565b9250828201905080821115612f9d57612f9c612ef8565b5b92915050565b7f546869732044494420646f65736e27742065786973742e000000000000000000600082015250565b6000612fd960178361277e565b9150612fe482612fa3565b602082019050919050565b6000602082019050818103600083015261300881612fcc565b9050919050565b60008190508160005260206000209050919050565b60006020601f8301049050919050565b600082821b905092915050565b6000600883026130717fffffffffffffffffffffffffffffffffffffffffffffffffffffffffffffffff82613034565b61307b8683613034565b95508019841693508086168417925050509392505050565b6000819050919050565b60006130b86130b36130ae84612655565b613093565b612655565b9050919050565b6000819050919050565b6130d28361309d565b6130e66130de826130bf565b848454613041565b825550505050565b600090565b6130fb6130ee565b6131068184846130c9565b505050565b5b8181101561312a5761311f6000826130f3565b60018101905061310c565b5050565b601f82111561316f576131408161300f565b61314984613024565b81016020851015613158578190505b61316c61316485613024565b83018261310b565b50505b505050565b600082821c905092915050565b600061319260001984600802613174565b1980831691505092915050565b60006131ab8383613181565b9150826002028217905092915050565b6131c482612773565b67ffffffffffffffff8111156131dd576131dc612921565b5b6131e78254612def565b6131f282828561312e565b600060209050601f8311600181146132255760008415613213578287015190505b61321d858261319f565b865550613285565b601f1984166132338661300f565b60005b8281101561325b57848901518255600182019150602085019450602081019050613236565b868310156132785784890151613274601f891682613181565b8355505b6001600288020188555050505b505050505050565b60006060820190506132a26000830186612857565b6132af60208301856128ed565b6132bc6040830184612857565b949350505050565b60006040820190506132d96000830185612857565b6132e660208301846128ed565b9392505050565b600081519050919050565b600082825260208201905092915050565b6000613314826132ed565b61331e81856132f8565b935061332e81856020860161278f565b613337816127b9565b840191505092915050565b60006080820190506133576000830187612857565b6133646020830186612857565b61337160408301856128ed565b81810360608301526133838184613309565b905095945050505050565b60008151905061339d816126e4565b92915050565b6000602082840312156133b9576133b861264b565b5b60006133c78482850161338e565b9150509291505056fea26469706673582212200ac0265472f55b2a1ad5fef5c66381cf4906c8859d5025f11041963c152e594264736f6c63430008140033",
  "linkReferences": {},
  "deployedLinkReferences": {}
}